{
  "_format": "hh-sol-artifact-1",
  "contractName": "WorkflowLog",
  "sourceName": "contracts/WorkflowLog.sol",
  "abi": [
    {
      "anonymous": false,
      "inputs": [
        {
          "indexed": true,
          "internalType": "bytes32",
          "name": "studentHash",
          "type": "bytes32"
        },
        {
          "indexed": false,
          "internalType": "string",
          "name": "action",
          "type": "string"
        },
        {
          "indexed": false,
          "internalType": "uint256",
          "name": "timestamp",
          "type": "uint256"
        }
      ],
      "name": "ActionLog",
      "type": "event"
    },
    {
      "inputs": [
        {
          "internalType": "string",
          "name": "studentId",
          "type": "string"
        },
        {
          "internalType": "string",
          "name": "action",
          "type": "string"
        }
      ],
      "name": "logAction",
      "outputs": [],
      "stateMutability": "nonpayable",
      "type": "function"
    }
  ],
  "bytecode": "0x608060405234801561001057600080fd5b506103d9806100206000396000f3fe608060405234801561001057600080fd5b506004361061002b5760003560e01c806397f8abd814610030575b600080fd5b61004a60048036038101906100459190610210565b61004c565b005b60008260405160200161005f91906102f9565b604051602081830303815290604052805190602001209050807fea52ce9dbb290b3052c907e715d50d58dc77871fa395959740b39f411c6d472e83426040516100a9929190610373565b60405180910390a2505050565b6000604051905090565b600080fd5b600080fd5b600080fd5b600080fd5b6000601f19601f8301169050919050565b7f4e487b7100000000000000000000000000000000000000000000000000000000600052604160045260246000fd5b61011d826100d4565b810181811067ffffffffffffffff8211171561013c5761013b6100e5565b5b80604052505050565b600061014f6100b6565b905061015b8282610114565b919050565b600067ffffffffffffffff82111561017b5761017a6100e5565b5b610184826100d4565b9050602081019050919050565b82818337600083830152505050565b60006101b36101ae84610160565b610145565b9050828152602081018484840111156101cf576101ce6100cf565b5b6101da848285610191565b509392505050565b600082601f8301126101f7576101f66100ca565b5b81356102078482602086016101a0565b91505092915050565b60008060408385031215610227576102266100c0565b5b600083013567ffffffffffffffff811115610245576102446100c5565b5b610251858286016101e2565b925050602083013567ffffffffffffffff811115610272576102716100c5565b5b61027e858286016101e2565b9150509250929050565b600081519050919050565b600081905092915050565b60005b838110156102bc5780820151818401526020810190506102a1565b60008484015250505050565b60006102d382610288565b6102dd8185610293565b93506102ed81856020860161029e565b80840191505092915050565b600061030582846102c8565b915081905092915050565b600082825260208201905092915050565b600061032c82610288565b6103368185610310565b935061034681856020860161029e565b61034f816100d4565b840191505092915050565b6000819050919050565b61036d8161035a565b82525050565b6000604082019050818103600083015261038d8185610321565b905061039c6020830184610364565b939250505056fea264697066735822122091dcff99e5e9479766d144b5070d5bc3d2f66386fb64ee674ba866bc42f4865e64736f6c63430008130033",
  "linkReferences": {},
  "deployedLinkReferences": {}
}